S00C00006C6162382E73726563B1
S11300000C94FE000C941C010C941C010C941C0117
S11300100C941C010C941C010C941C010C941C01E8
S11300200C941C010C941C010C941C010C941C01D8
S11300300C941C010C941C010C941C010C941C01C8
S11300400C941C010C941C010C941C010C941C01B8
S11300500C941C010C941C010C941C010C941C01A8
S11300600C941C010C941C010C941C010C941C0198
S11300700C941C010C941C010C941C010C941C0188
S11300800C941C010C941C010C941C010C941C0178
S11300900C941C010C941C010C941C010C941C0168
S11300A00C941C010C941C010C941C010C941C0158
S11300B00C941C010C941C010C941C010C941C0148
S11300C00C941C010C941C010C941C010C941C0138
S11300D00C941C010C941C010C941C010C941C0128
S11300E00C941C010C941C010C941C010C941C0118
S11300F00C941C010C941C010C941C010C941C0108
S11301000C941C010C941C010C941C010C941C01F7
S11301100C941C010C941C010C941C010C941C01E7
S11301200C941C010C941C010C941C010C941C01D7
S11301300C941C010C941C010C941C010C941C01C7
S11301400C941C010C941C010C941C010C941C01B7
S11301500C941C010C941C010C941C010C941C01A7
S11301600C941C010C941C010C941C010C941C0197
S11301700C941C010C941C010C941C010C941C0187
S11301800C941C010C941C010C941C010C941C0177
S11301900C941C010C941C010C941C010C941C0167
S11301A00C941C010C941C010C941C010C941C0157
S11301B00C941C010C941C010C941C010C941C0147
S11301C00C941C010C941C010C941C010C941C0137
S11301D00C941C010C941C010C941C010C941C0127
S11301E00C941C010C941C010C941C010C941C0117
S11301F00C941C010C941C010C941C0111241FBEB2
S1130200CFEFCDBFDFE3DEBF00E00CBF18BE19BEE9
S11302101ABE1BBE14E2A0E0B0E2EEE7F5E000E097
S11302200BBF02C007900D92A030B107D9F71BBED7
S11302300E9434010C94BD020C9400008F9382E060
S1130240809350008091510081FFFCCF88ED809312
S1130250340081E08093400088ED8093340080E096
S1130260809341008F910895CF93DF931F92CDB770
S1130270DEB70E941E010E9431020E9445020E94C4
S1130280600280E091E020E4FC01208380E091E0C2
S113029020E4FC01208B80E091E020E032E0FC01CE
S11302A0248B358B80E091E0FC01168A80E091E09C
S11302B020E031E0F90120892562FC01208B80E0F7
S11302C091E020E031E0F90122892965FC01228BCB
S11302D080E091E025E1FC01238B80E091E020E0C7
S11302E030E2FC01208F80E091E020E030E2232F17
S11302F03327FC01218F20E031E080E090E2CC0143
S1130300A0E0B0E0CD01AA27BB27F901828F80E0ED
S113031091E028E1FC01248F80E091E023E0FC01DE
S1130320258F80E091E0FC01168E80E091E020E0D2
S113033031E0F90120892068FC01208B80E091E004
S113034020E8FC01208380EA90E020EA30E0F90113
S113035022812160FC012283789480E098E022E0ED
S1130360FC0120830E94AB0289838981882F90E05D
S11303700E94900289818836C1F580E091E0FC01F9
S1130380108A80E091E020E032E0FC01248B358B80
S113039080E091E020E032E2FC01208F80E091E0F7
S11303A020E032E2232F3327FC01218F20E031E0CB
S11303B080E092E2CC01A0E0B0E0CD01AA27BB2707
S11303C0F901828F80E091E020E031E0F901208999
S11303D02562FC01208B80E091E020E031E0F9010E
S11303E020892068FC01208BBDCF89818F3609F0DC
S11303F0B9CF80E091E0FC01108A80E091E020E038
S113040032E0FC01248B358B80E091E020E030E287
S1130410FC01208F80E091E020E030E2232F33279D
S1130420FC01218F20E031E080E090E2CC01A0E0EB
S1130430B0E0CD01AA27BB27F901828F80E091E0CB
S113044020E031E0F90120892562FC01208B80E065
S113045091E020E031E0F90120892068FC01208B43
S113046081CFCF93DF93CDB7DEB780E098E02CE364
S113047030E0FC0126A337A380E891E020ECFC01E6
S113048020830000DF91CF910895CF93DF93CDB700
S1130490DEB780E093E021E0FC01218380E093E07B
S11304A028E1FC01228380E093E0FC01138280E0D8
S11304B093E025E0FC0120830000DF91CF910895B3
S11304C0CF93DF93CDB7DEB780E696E028E0FC015A
S11304D0258380E696E028E0FC01218380E696E00F
S11304E024E0FC01228380EA99E02EE2FC012683C9
S11304F080EA99E028E9FC01278380EA99E023E077
S1130500FC01258380EA99E028E1FC01248380EA48
S113051099E020E1FC0123830000DF91CF9108954D
S1130520CF93DF931F92CDB7DEB78983000080EAB3
S113053099E0FC018181882F90E080729927892BB2
S1130540B1F380EA99E02981FC01208300000F9037
S1130550DF91CF910895CF93DF93CDB7DEB700003D
S113056080EA99E0FC0181818823D4F780EA99E04C
S1110570FC018081DF91CF910895F894FFCFB4
S113057E0008320864089608C808FA082C095E09AF
S113058E8F09C009F109220A520A820AB10AE00A45
S113059E0F0B3D0B6B0B980BC50BF10B1C0C470C87
S11305AE710C9A0CC30CEB0C120D390D5F0D830DEF
S11305BEA70DCA0DED0D0E0E2E0E4E0E6C0E8A0EDE
S11305CEA60EC10EDC0EF50E0D0F240F3A0F4F0FB3
S11305DE630F760F870F980FA70FB50FC20FCD0FAE
S11305EED80FE10FE90FF00FF50FF90FFD0FFE0F06
S11305FEFF0FFE0FFD0FF90FF50FF00FE90FE10FCF
S113060ED80FCD0FC20FB50FA70F980F870F760F08
S113061E630F4F0F3A0F240F0D0FF50EDC0EC10EA4
S113062EA60E8A0E6C0E4E0E2E0E0E0EED0DCA0D6D
S113063EA70D830D5F0D390D120DEB0CC30C9A0C27
S113064E710C470C1C0CF10BC50B980B6B0B3D0B73
S113065E0F0BE00AB10A820A520A220AF109C009F2
S113066E8F095E092C09FA08C8089608640832082E
S113067E0008CD079B07690737070507D306A106B0
S113068E70063F060E06DD05AD057D054E051F05FC
S113069EF004C204940467043A040E04E303B8039A
S11306AE8E0365033C031403ED02C602A0027C0212
S11306BE580235021202F101D101B1019301750103
S11306CE59013E0123010A01F200DB00C500B0000E
S11306DE9C0089007800670058004A003D003200F3
S11306EE27001E0016000F000A000600020001007B
S11306FE00000100020006000A000F0016001E0092
S113070E270032003D004A00580067007800890037
S113071E9C00B000C500DB00F2000A0123013E017B
S113072E590175019301B101D101F1011202350292
S113073E58027C02A002C602ED0214033C036503B8
S113074E8E03B803E3030E043A0467049404C2044C
S113075EF0041F054E057D05AD05DD050E063F06AD
S113076E7006A106D3060507370769079B07CD0751
S113077E0004190432044B0464047D049604AF048B
S113078EC804E004F904110529054105590571054C
S113079E88059F05B605CC05E305F9050E06240666
S11307AE39064E06620676068A069D06B006C2060F
S11307BED406E606F7060707180727073607450780
S11307CE530761076E077B07870793079E07A807E2
S11307DEB207BB07C407CC07D407DB07E107E7075B
S11307EEEC07F107F507F807FB07FD07FF070008FD
S11307FE00080008FF07FD07FB07F807F507F107D8
S113080EEC07E707E107DB07D407CC07C407BB07F0
S113081EB207A8079E07930787077B076E07610732
S113082E530745073607270718070707F706E6068F
S113083ED406C206B0069D068A06760662064E06E3
S113084E390624060E06F905E305CC05B6059F0503
S113085E880571055905410529051105F904E004BA
S113086EC804AF0496047D0464044B0432041904D2
S113087E0004E703CE03B5039C0383036A03510309
S113088E380320030703EF02D702BF02A7028F0229
S113089E780261024A0234021D020702F201DC01EF
S11308AEC701B2019E018A017601630150013E0126
S11308BE2C011A010901F900E800D900CA00BB0095
S11308CEAD009F009200850079006D006200580013
S11308DE4E0045003C0034002C0025001F0019007A
S11308EE14000F000B0008000500030001000000B7
S11308FE0000000001000300050008000B000F00BB
S113090E140019001F0025002C0034003C00450083
S113091E4E00580062006D007900850092009F0021
S113092EAD00BB00CA00D900E800F90009011A01A4
S113093E2C013E015001630176018A019E01B20130
S113094EC701DC01F20107021D0234024A026102F0
S113095E78028F02A702BF02D702EF020703200319
S113096E380351036A0383039C03B503CE03E703E1
S9030000FC
